:100000000C945D000C9485000C9485000C94850084
:100010000C9485000C9485000C9485000C9485004C
:100020000C9485000C9485000C9485000C9485003C
:100030000C9485000C9485000C9485000C9485002C
:100040000C9430030C9485000C94A0030C947A0358
:100050000C9485000C9485000C9485000C9485000C
:100060000C9485000C9485000000000024002700FB
:100070002A0000000000250028002B0004040404CE
:100080000404040402020202020203030303030342
:10009000010204081020408001020408102001021F
:1000A00004081020000000080002010000030407FB
:1000B00000000000000000005A0511241FBECFEF11
:1000C000D8E0DEBFCDBF11E0A0E0B1E0E4EEFFE09C
:1000D00002C005900D92A834B107D9F721E0A8E439
:1000E000B1E001C01D92AE3EB207E1F710E0CDE5F0
:1000F000D0E004C02197FE010E94E507CC35D1076E
:10010000C9F70E94D2030C94F0070C94000090E011
:10011000FC01EC55FF4F2491FC01E057FF4F349157
:10012000FC01E458FF4FE491EE2309F43CC0222384
:1001300039F1233091F038F42130A9F0223001F563
:1001400084B58F7D12C0273091F02830A1F0243083
:10015000B9F4809180008F7D03C0809180008F77FB
:10016000809380000DC084B58F7784BD09C08091D5
:10017000B0008F7703C08091B0008F7D8093B00076
:10018000F0E0EE0FFF1FEE58FF4FA591B4919FB71F
:10019000F894611104C08C913095382302C0EC9121
:1001A0003E2B3C939FBF08953FB7F89480914D013B
:1001B00090914E01A0914F01B091500126B5A89B9E
:1001C00005C02F3F19F00196A11DB11D3FBFBA2FE9
:1001D000A92F982F8827820F911DA11DB11DBC0149
:1001E000CD0142E0660F771F881F991F4A95D1F70E
:1001F0000895CF92DF92EF92FF920F931F93CF93C8
:10020000DF936C017A018B01C0E0D0E0CE15DF05F1
:1002100081F0D8016D918D01D601ED91FC91019095
:10022000F081E02DC6010995892B11F02196EECFC2
:100230007E01C701DF91CF911F910F91FF90EF9049
:10024000DF90CF900895089580E090E00895FC013C
:10025000538D448D252F30E0842F90E0821B930B2B
:10026000541710F0CF96089501970895FC01918DD1
:10027000828D981761F0828DDF01A80FB11D5D9608
:100280008C91928D9F5F9F73928F90E008958FEF76
:100290009FEF0895FC01918D828D981731F0828D2A
:1002A000E80FF11D858D90E008958FEF9FEF089581
:1002B000FC01918D228D892F90E0805C9F4F821BE5
:1002C00091098F739927089581E591E00E94580163
:1002D00021E0892B09F420E0822F0895FC01848D10
:1002E000DF01A80FB11DA35ABF4F2C91848D90E060
:1002F00001968F739927848FA689B7892C93A0893B
:10030000B1898C91837080648C93938D848D9813C4
:1003100006C00288F389E02D80818F7D8083089557
:10032000EF92FF920F931F93CF93DF93EC0181E045
:10033000888F9B8D8C8D981305C0E889F989808101
:1003400085FD26C0F62E0B8D10E00F5F1F4F0F733B
:100350001127E02E8C8DE8120CC00FB607FCFACFE7
:10036000E889F989808185FFF5CFCE010E946E0171
:10037000F1CF8B8DFE01E80FF11DE35AFF4FF082A4
:100380009FB7F8940B8FEA89FB89808180620AC04D
:100390009FB7F894EE89FF896083E889F9898081A5
:1003A0008370806480839FBF81E090E0DF91CF9174
:1003B0001F910F91FF90EF900895CF93DF93EC0181
:1003C000888D8823C9F0EA89FB89808185FD05C075
:1003D000A889B9898C9186FD0FC00FB607FCF5CFAF
:1003E000808185FFF2CFA889B9898C9185FFEDCFF7
:1003F000CE010E946E01E7CFDF91CF91089580E09A
:1004000090E0892B29F00E94640181110C94000076
:100410000895009769F0FC0101900020E9F73197F9
:10042000AF01481B590BBC0181E591E00C94F90028
:1004300080E090E008958F929F92AF92BF920F93C9
:100440001F93CF93DF93CDB7DEB7A1970FB6F89484
:10045000DEBF0FBECDBF19A2423008F44AE08E01C4
:100460000F5D1F4F842E912CA12CB12CA50194015E
:100470000E94C307E62FB901CA0101501109EA30F1
:1004800014F4E05D01C0E95CD801EC93232B242B2C
:10049000252B61F7C8010E940902A1960FB6F894B6
:1004A000DEBF0FBECDBFDF91CF911F910F91BF90E7
:1004B000AF909F908F9008958F929F92AF92BF922E
:1004C000CF92DF92EF92FF920F931F93CF93DF9320
:1004D0006B017C01142F9B01AC010E94BE07882395
:1004E00019F082E191E027C046015701E894B7F87E
:1004F0002FEF3FEF4FE75FE7C501B4010E94BE0752
:1005000081110DC02FEF3FEF4FE75FE7C501B40149
:100510000E94F40518161CF486E191E00CC02FEF40
:100520003FEF4FE75FE4C701B6010E944C07181682
:1005300084F48AE191E0DF91CF911F910F91FF90B8
:10054000EF90DF90CF90BF90AF909F908F900C94E2
:1005500009022FEF3FEF4FE75FECC701B6010E94A2
:10056000F40587FDE6CF20E030E0A901C701B60120
:100570000E94F40587FF0BC06DE281E591E00E94C7
:100580009001EC01F7FAF094F7F8F09402C0C0E0A3
:10059000D0E000E060E070E080E09FE3101741F001
:1005A00020E030E040E251E40E94F9050F5FF6CF11
:1005B000A70196010E9488056B017C010E946B06D1
:1005C0004B015C014AE00E941B02C80FD91F112396
:1005D000B9F1C501B4010E949A069B01AC01C701A3
:1005E000B6010E9487056B017C016EE281E591E016
:1005F0000E949001C80FD91F20E030E040E251E492
:10060000C701B6010E9451074B015C010E946B06B5
:100610006B01E12CF12C4AE0C701B6010E941B02DC
:10062000C80FD91FC701B6010E949A069B01AC01F1
:10063000C501B4010E9487056B017C011150E1F6F0
:10064000CE01DF91CF911F910F91FF90EF90DF903E
:10065000CF90BF90AF909F908F9008950E94EB072E
:100660001F920F920FB60F9211242F933F938F93E7
:100670009F93AF93BF938091490190914A01A091BC
:100680004B01B0914C013091480123E0230F2D37ED
:1006900020F40196A11DB11D05C026E8230F029686
:1006A000A11DB11D209348018093490190934A01F7
:1006B000A0934B01B0934C0180914D0190914E015C
:1006C000A0914F01B09150010196A11DB11D8093E1
:1006D0004D0190934E01A0934F01B0935001BF91F3
:1006E000AF919F918F913F912F910F900FBE0F90DF
:1006F0001F9018951F920F920FB60F9211242F93EF
:100700003F934F935F936F937F938F939F93AF9399
:10071000BF93EF93FF9381E591E00E946E01FF91FB
:10072000EF91BF91AF919F918F917F916F915F9169
:100730004F913F912F910F900FBE0F901F901895E2
:100740001F920F920FB60F9211242F938F939F93A6
:10075000EF93FF93E0916101F09162018081E0915C
:100760006701F091680182FD12C0908180916A0159
:100770008F5F8F7320916B01821751F0E0916A01B6
:10078000F0E0EF5AFE4F958F80936A0101C080819F
:10079000FF91EF919F918F912F910F900FBE0F902E
:1007A0001F901895789484B5826084BD84B581606B
:1007B00084BD85B5826085BD85B5816085BD80912C
:1007C0006E00816080936E001092810080918100A4
:1007D000826080938100809181008160809381009C
:1007E000809180008160809380008091B10084605E
:1007F0008093B1008091B00081608093B0008091BF
:100800007A00846080937A0080917A00826080937D
:100810007A0080917A00816080937A0080917A00DA
:10082000806880937A001092C100E0916101F0919C
:10083000620182E08083E0915D01F0915E011082AF
:10084000E0915F01F09160018FEC8083109269016B
:10085000E0916501F091660186E08083E09163019B
:10086000F0916401808180618083E0916301F09167
:100870006401808188608083E0916301F09164016C
:10088000808180688083E0916301F09164018081C0
:100890008F7D8083C2E0D0E08C2FFE01E057FF4FB8
:1008A0009491FE01E458FF4F2491222399F030E007
:1008B000220F331FF901E859FF4FA591B491F901B7
:1008C000EE58FF4F259134912FB7F894EC91E92B16
:1008D000EC932FBF60E00E9487002196C530D105C0
:1008E000D9F610E410937C0080917A0080648093A4
:1008F0007A0080917A0086FDFCCFC09178008091CB
:100900007900D0E0D82B8EE191E00E9409026E01BF
:100910000D2E000CEE08FF08D7FF10C06DE281E538
:1009200091E00E94900188279927DC018C199D098C
:10093000AE09BF094AE0BC01CD0103C04AE0C701CE
:10094000B6010E941B02C701B6010E949C0620E06E
:1009500030E040E85AE30E94510720E030E040EAEE
:1009600050E40E9451076B017C018DE291E00E94EE
:10097000090242E0C701B6010E945C0287E391E0F0
:100980000E94090220E030E040E05FE3C701B601C9
:100990000E94870520E030E048EC52E40E945107B5
:1009A0006B017C0142E00E945C0285E491E00E94C0
:1009B000090220E030E040EB51E4C701B6010E949B
:1009C000F40587FD4EC020E030E040EB51E4C70164
:1009D000B6010E944C0787FD10C020E030E040ECDB
:1009E00051E4C701B6010E94F40587FF06C061E02B
:1009F00082E00E94870060E019C020E030E040EC17
:100A000051E4C701B6010E944C0787FD14C020E0E5
:100A100030E040ED51E4C701B6010E94F40587FFC4
:100A20000AC061E082E00E94870061E083E00E94EA
:100A3000870060E013C020E030E040ED51E4C701E2
:100A4000B6010E944C07181664F461E082E00E942F
:100A5000870061E083E00E94870061E084E00E94FB
:100A600087000E94D4006B017C0188EC882E912CB9
:100A7000A12CB12C0E94D400DC01CB018C199D0962
:100A8000AE09BF09883E9340A105B10598F321E066
:100A9000821A9108A108B10888EEC80E83E0D81E1A
:100AA000E11CF11C81149104A104B10419F70E9406
:100AB000FF0118CFE1E5F1E01382128288EE93E0A6
:100AC000A0E0B0E084839583A683B78384E091E0BF
:100AD0009183808385EC90E09587848784EC90E017
:100AE0009787868780EC90E0918B808B81EC90E0FB
:100AF000938B828B82EC90E0958B848B86EC90E0DC
:100B0000978B868B118E128E138E148E08955058EB
:100B1000BB27AA270E949F050C9412070E94040776
:100B200038F00E940B0720F039F49F3F19F426F4A7
:100B30000C9401070EF4E095E7FB0C94FB06E92FFB
:100B40000E94230758F3BA176207730784079507B3
:100B500020F079F4A6F50C9445070EF4E0950B2EE1
:100B6000BA2FA02D0B01B90190010C01CA01A001FF
:100B70001124FF27591B99F0593F50F4503E68F15A
:100B80001A16F040A22F232F342F4427585FF3CF9B
:100B9000469537952795A795F0405395C9F77EF46C
:100BA0001F16BA0B620B730B840BBAF09150A1F0B5
:100BB000FF0FBB1F661F771F881FC2F70EC0BA0F3B
:100BC000621F731F841F48F4879577956795B795C3
:100BD000F7959E3F08F0B0CF9395880F08F09927BE
:100BE000EE0F9795879508950E94D70608F481E047
:100BF00008950E940D060C9412070E940B0758F0EE
:100C00000E94040740F029F45F3F29F00C94FB0692
:100C100051110C9446070C9401070E94230768F3B6
:100C20009923B1F3552391F3951B550BBB27AA27A5
:100C300062177307840738F09F5F5F4F220F331FDF
:100C4000441FAA1FA9F335D00E2E3AF0E0E832D0A7
:100C500091505040E695001CCAF72BD0FE2F29D0AA
:100C6000660F771F881FBB1F261737074807AB077C
:100C7000B0E809F0BB0B802DBF01FF2793585F4FF1
:100C80003AF09E3F510578F00C94FB060C94460711
:100C90005F3FE4F3983ED4F3869577956795B795D3
:100CA000F7959F5FC9F7880F911D9695879597F9DE
:100CB0000895E1E0660F771F881FBB1F6217730757
:100CC0008407BA0720F0621B730B840BBA0BEE1F6C
:100CD00088F7E09508950E942B0788F09F5798F0B9
:100CE000B92F9927B751B0F0E1F0660F771F881F31
:100CF000991F1AF0BA95C9F714C0B13091F00E944B
:100D00004507B1E008950C944507672F782F882791
:100D1000B85F39F0B93FCCF3869577956795B39571
:100D2000D9F73EF490958095709561957F4F8F4FE0
:100D30009F4F0895E89409C097FB3EF490958095E5
:100D4000709561957F4F8F4F9F4F9923A9F0F92F91
:100D500096E9BB279395F695879577956795B7950F
:100D6000F111F8CFFAF4BB0F11F460FF1BC06F5FF5
:100D70007F4F8F4F9F4F16C0882311F096E911C007
:100D8000772321F09EE8872F762F05C0662371F028
:100D900096E8862F70E060E02AF09A95660F771F3C
:100DA000881FDAF7880F9695879597F90895990F18
:100DB0000008550FAA0BE0E8FEEF16161706E80725
:100DC000F907C0F012161306E407F50798F0621B46
:100DD000730B840B950B39F40A2661F0232B242B1B
:100DE000252B21F408950A2609F4A140A6958FEF3A
:100DF000811D811D089597F99F6780E870E060E08C
:100E000008959FEF80EC089500240A9416161706A3
:100E100018060906089500240A94121613061406EB
:100E200005060895092E0394000C11F4882352F04E
:100E3000BB0F40F4BF2B11F460FF04C06F5F7F4F06
:100E40008F4F9F4F089557FD9058440F551F59F0ED
:100E50005F3F71F04795880F97FB991F61F09F3FA7
:100E600079F087950895121613061406551FF2CFD0
:100E70004695F1DF08C0161617061806991FF1CF20
:100E800086957105610508940895E894BB27662747
:100E90007727CB0197F908950E94D70608F48FEFC2
:100EA00008950E9464070C9412070E94040738F00A
:100EB0000E940B0720F0952311F00C94FB060C9474
:100EC000010711240C9446070E94230770F3959F95
:100ED000C1F3950F50E0551F629FF001729FBB2731
:100EE000F00DB11D639FAA27F00DB11DAA1F649FCD
:100EF0006627B00DA11D661F829F2227B00DA11D80
:100F0000621F739FB00DA11D621F839FA00D611D05
:100F1000221F749F3327A00D611D231F849F600D26
:100F2000211D822F762F6A2F11249F5750409AF04F
:100F3000F1F088234AF0EE0FFF1FBB1F661F771FDB
:100F4000881F91505040A9F79E3F510580F00C94A6
:100F5000FB060C9446075F3FE4F3983ED4F3869576
:100F600077956795B795F795E7959F5FC1F7FE2B46
:100F7000880F911D9695879597F908950E94D70639
:100F8000880B990B0895A1E21A2EAA1BBB1BFD0129
:100F90000DC0AA1FBB1FEE1FFF1FA217B307E40758
:100FA000F50720F0A21BB30BE40BF50B661F771FB0
:100FB000881F991F1A9469F7609570958095909590
:100FC0009B01AC01BD01CF010895EE0FFF1F0590FD
:100FD000F491E02D099481E090E0F8940C94F007EE
:040FE000F894FFCFB3
:100FE400000000009001F9002701DD0158013601DD
:100FF4004A016E616E00696E66006F766600536525
:101004006E736F722056616C75653A20002C205601
:101014006F6C74733A20002C206465677265657385
:0810240020433A20000D0A00F0
:107E0000112484B714BE81FFF0D085E080938100F7
:107E100082E08093C00088E18093C10086E0809377
:107E2000C20080E18093C4008EE0C9D0259A86E02C
:107E300020E33CEF91E0309385002093840096BBD3
:107E4000B09BFECF1D9AA8958150A9F7CC24DD24C4
:107E500088248394B5E0AB2EA1E19A2EF3E0BF2EE7
:107E6000A2D0813461F49FD0082FAFD0023811F036
:107E7000013811F484E001C083E08DD089C08234E0
:107E800011F484E103C0853419F485E0A6D080C0E4
:107E9000853579F488D0E82EFF2485D0082F10E0AE
:107EA000102F00270E291F29000F111F8ED06801E7
:107EB0006FC0863521F484E090D080E0DECF843638
:107EC00009F040C070D06FD0082F6DD080E0C81688
:107ED00080E7D80618F4F601B7BEE895C0E0D1E017
:107EE00062D089930C17E1F7F0E0CF16F0E7DF06D8
:107EF00018F0F601B7BEE89568D007B600FCFDCFD4
:107F0000A601A0E0B1E02C9130E011968C91119780
:107F100090E0982F8827822B932B1296FA010C0160
:107F200087BEE89511244E5F5F4FF1E0A038BF0790
:107F300051F7F601A7BEE89507B600FCFDCF97BE46
:107F4000E89526C08437B1F42ED02DD0F82E2BD052
:107F50003CD0F601EF2C8F010F5F1F4F84911BD097
:107F6000EA94F801C1F70894C11CD11CFA94CF0C13
:107F7000D11C0EC0853739F428D08EE10CD085E9AC
:107F80000AD08FE07ACF813511F488E018D01DD067
:107F900080E101D065CF982F8091C00085FFFCCF94
:107FA0009093C60008958091C00087FFFCCF809118
:107FB000C00084FD01C0A8958091C6000895E0E648
:107FC000F0E098E1908380830895EDDF803219F02E
:107FD00088E0F5DFFFCF84E1DECF1F93182FE3DFCA
:107FE0001150E9F7F2DF1F91089580E0E8DFEE27F6
:047FF000FF270994CA
:027FFE00040479
:0400000300007E007B
:00000001FF
